{
  "contractName": "calculator",
  "abi": [
    {
      "inputs": [
        {
          "internalType": "int256",
          "name": "n1",
          "type": "int256"
        },
        {
          "internalType": "int256",
          "name": "n2",
          "type": "int256"
        }
      ],
      "name": "set",
      "outputs": [],
      "stateMutability": "nonpayable",
      "type": "function"
    },
    {
      "inputs": [
        {
          "internalType": "string",
          "name": "s",
          "type": "string"
        }
      ],
      "name": "get",
      "outputs": [
        {
          "internalType": "int256",
          "name": "",
          "type": "int256"
        }
      ],
      "stateMutability": "view",
      "type": "function",
      "constant": true
    }
  ],
  "bytecode": "0x608060405234801561001057600080fd5b50610891806100206000396000f3fe608060405234801561001057600080fd5b50600436106100365760003560e01c806304c402f41461003b578063693ec85e14610057575b600080fd5b6100556004803603810190610050919061028f565b610087565b005b610071600480360381019061006c9190610415565b610099565b60405161007e919061046d565b60405180910390f35b81600081905550806001819055505050565b60006040516020016100aa906104df565b60405160208183030381529060405280519060200120826040516020016100d1919061055a565b6040516020818303038152906040528051906020012003610103576001546000546100fc91906105a0565b9050610240565b60405160200161011290610630565b6040516020818303038152906040528051906020012082604051602001610139919061055a565b604051602081830303815290604052805190602001200361016b576001546000546101649190610645565b9050610240565b60405160200161017a906106d4565b60405160208183030381529060405280519060200120826040516020016101a1919061055a565b60405160208183030381529060405280519060200120036101d3576001546000546101cc91906106e9565b9050610240565b6040516020016101e2906107ad565b6040516020818303038152906040528051906020012082604051602001610209919061055a565b604051602081830303815290604052805190602001200361023b5760015460005461023491906107f1565b9050610240565b600090505b919050565b6000604051905090565b600080fd5b600080fd5b6000819050919050565b61026c81610259565b811461027757600080fd5b50565b60008135905061028981610263565b92915050565b600080604083850312156102a6576102a561024f565b5b60006102b48582860161027a565b92505060206102c58582860161027a565b9150509250929050565b600080fd5b600080fd5b6000601f19601f8301169050919050565b7f4e487b7100000000000000000000000000000000000000000000000000000000600052604160045260246000fd5b610322826102d9565b810181811067ffffffffffffffff82111715610341576103406102ea565b5b80604052505050565b6000610354610245565b90506103608282610319565b919050565b600067ffffffffffffffff8211156103805761037f6102ea565b5b610389826102d9565b9050602081019050919050565b82818337600083830152505050565b60006103b86103b384610365565b61034a565b9050828152602081018484840111156103d4576103d36102d4565b5b6103df848285610396565b509392505050565b600082601f8301126103fc576103fb6102cf565b5b813561040c8482602086016103a5565b91505092915050565b60006020828403121561042b5761042a61024f565b5b600082013567ffffffffffffffff81111561044957610448610254565b5b610455848285016103e7565b91505092915050565b61046781610259565b82525050565b6000602082019050610482600083018461045e565b92915050565b600081905092915050565b7f2b00000000000000000000000000000000000000000000000000000000000000600082015250565b60006104c9600183610488565b91506104d482610493565b600182019050919050565b60006104ea826104bc565b9150819050919050565b600081519050919050565b60005b8381101561051d578082015181840152602081019050610502565b60008484015250505050565b6000610534826104f4565b61053e8185610488565b935061054e8185602086016104ff565b80840191505092915050565b60006105668284610529565b915081905092915050565b7f4e487b7100000000000000000000000000000000000000000000000000000000600052601160045260246000fd5b60006105ab82610259565b91506105b683610259565b9250828201905082811215600083121683821260008412151617156105de576105dd610571565b5b92915050565b7f2d00000000000000000000000000000000000000000000000000000000000000600082015250565b600061061a600183610488565b9150610625826105e4565b600182019050919050565b600061063b8261060d565b9150819050919050565b600061065082610259565b915061065b83610259565b925082820390508181126000841216828213600085121516171561068257610681610571565b5b92915050565b7f2a00000000000000000000000000000000000000000000000000000000000000600082015250565b60006106be600183610488565b91506106c982610688565b600182019050919050565b60006106df826106b1565b9150819050919050565b60006106f482610259565b91506106ff83610259565b925082820261070d81610259565b91507f8000000000000000000000000000000000000000000000000000000000000000841460008412161561074557610744610571565b5b828205841483151761075a57610759610571565b5b5092915050565b7f2f00000000000000000000000000000000000000000000000000000000000000600082015250565b6000610797600183610488565b91506107a282610761565b600182019050919050565b60006107b88261078a565b9150819050919050565b7f4e487b7100000000000000000000000000000000000000000000000000000000600052601260045260246000fd5b60006107fc82610259565b915061080783610259565b925082610817576108166107c2565b5b600160000383147f8000000000000000000000000000000000000000000000000000000000000000831416156108505761084f610571565b5b82820590509291505056fea26469706673582212200af498ee47973009992fe6b9fbe2350f67106ce62fd5808a708776534dbe743864736f6c63430008110033",
  "immutableReferences": {},
  "source": "//SPDX-License-Identifier: UNLICENSED\r\npragma solidity ^0.8.6;\r\n\r\ncontract calculator{\r\n    int num1;\r\n    int num2;\r\n\r\n    function set(int n1,int n2) public{\r\n        num1 = n1;\r\n        num2 = n2;\r\n    }\r\n\r\n    function get(string memory s) public view returns(int){\r\n        if(keccak256(abi.encodePacked(s))==keccak256(abi.encodePacked(\"+\"))){\r\n            return num1 + num2;\r\n        }else if(keccak256(abi.encodePacked(s))==keccak256(abi.encodePacked(\"-\"))){\r\n            return num1 - num2;\r\n        }else if(keccak256(abi.encodePacked(s))==keccak256(abi.encodePacked(\"*\"))){\r\n            return num1 * num2;\r\n        }else if(keccak256(abi.encodePacked(s))==keccak256(abi.encodePacked(\"/\"))){\r\n            return num1 / num2;\r\n        }\r\n        return 0;\r\n    }\r\n}",
  "sourcePath": "P:\\Blockchain\\Calculator\\Server\\contracts\\calculator.sol",
  "compiler": {
    "name": "solc",
    "version": "0.8.17+commit.8df45f5f.Emscripten.clang"
  },
  "schemaVersion": "3.4.11",
  "updatedAt": "2023-01-12T05:17:42.421Z",
  "networkType": "ethereum",
  "devdoc": {
    "kind": "dev",
    "methods": {},
    "version": 1
  },
  "userdoc": {
    "kind": "user",
    "methods": {},
    "version": 1
  }
}